{
  "contractName": "Lottery",
  "abi": [
    {
      "inputs": [
        {
          "internalType": "uint256",
          "name": "_winningGuess",
          "type": "uint256"
        }
      ],
      "payable": false,
      "stateMutability": "nonpayable",
      "type": "constructor"
    },
    {
      "constant": true,
      "inputs": [],
      "name": "owner",
      "outputs": [
        {
          "internalType": "address payable",
          "name": "",
          "type": "address"
        }
      ],
      "payable": false,
      "stateMutability": "view",
      "type": "function"
    },
    {
      "constant": true,
      "inputs": [
        {
          "internalType": "uint256",
          "name": "",
          "type": "uint256"
        }
      ],
      "name": "userAddresses",
      "outputs": [
        {
          "internalType": "address",
          "name": "",
          "type": "address"
        }
      ],
      "payable": false,
      "stateMutability": "view",
      "type": "function"
    },
    {
      "constant": true,
      "inputs": [
        {
          "internalType": "address",
          "name": "",
          "type": "address"
        }
      ],
      "name": "users",
      "outputs": [
        {
          "internalType": "address payable",
          "name": "userAddress",
          "type": "address"
        },
        {
          "internalType": "uint256",
          "name": "tokensBought",
          "type": "uint256"
        }
      ],
      "payable": false,
      "stateMutability": "view",
      "type": "function"
    },
    {
      "constant": true,
      "inputs": [
        {
          "internalType": "address",
          "name": "_user",
          "type": "address"
        }
      ],
      "name": "userTokens",
      "outputs": [
        {
          "internalType": "uint256",
          "name": "",
          "type": "uint256"
        }
      ],
      "payable": false,
      "stateMutability": "view",
      "type": "function"
    },
    {
      "constant": true,
      "inputs": [
        {
          "internalType": "address",
          "name": "_user",
          "type": "address"
        }
      ],
      "name": "userGuesses",
      "outputs": [
        {
          "internalType": "uint256[]",
          "name": "",
          "type": "uint256[]"
        }
      ],
      "payable": false,
      "stateMutability": "view",
      "type": "function"
    },
    {
      "constant": true,
      "inputs": [],
      "name": "winningGuess",
      "outputs": [
        {
          "internalType": "bytes32",
          "name": "",
          "type": "bytes32"
        }
      ],
      "payable": false,
      "stateMutability": "view",
      "type": "function"
    },
    {
      "constant": false,
      "inputs": [],
      "name": "makeUser",
      "outputs": [],
      "payable": false,
      "stateMutability": "nonpayable",
      "type": "function"
    },
    {
      "constant": false,
      "inputs": [],
      "name": "addTokens",
      "outputs": [],
      "payable": true,
      "stateMutability": "payable",
      "type": "function"
    },
    {
      "constant": false,
      "inputs": [
        {
          "internalType": "uint256",
          "name": "_userGuess",
          "type": "uint256"
        }
      ],
      "name": "makeGuess",
      "outputs": [],
      "payable": false,
      "stateMutability": "nonpayable",
      "type": "function"
    },
    {
      "constant": true,
      "inputs": [],
      "name": "closeGame",
      "outputs": [
        {
          "internalType": "address",
          "name": "",
          "type": "address"
        }
      ],
      "payable": false,
      "stateMutability": "view",
      "type": "function"
    },
    {
      "constant": true,
      "inputs": [],
      "name": "winnerAddress",
      "outputs": [
        {
          "internalType": "address payable",
          "name": "",
          "type": "address"
        }
      ],
      "payable": false,
      "stateMutability": "view",
      "type": "function"
    },
    {
      "constant": false,
      "inputs": [],
      "name": "getPrice",
      "outputs": [
        {
          "internalType": "uint256",
          "name": "",
          "type": "uint256"
        }
      ],
      "payable": false,
      "stateMutability": "nonpayable",
      "type": "function"
    }
  ],
  "bytecode": "0x608060405234801561001057600080fd5b50604051610e28380380610e288339818101604052602081101561003357600080fd5b810190808051906020019092919050505033600260006101000a81548173ffffffffffffffffffffffffffffffffffffffff021916908373ffffffffffffffffffffffffffffffffffffffff16021790555080604051602001808281526020019150506040516020818303038152906040528051906020012060038190555050610d66806100c26000396000f3fe6080604052600436106100a75760003560e01c806398da61af1161006457806398da61af146102e1578063a87430ba1461030c578063d18a524a146103a4578063d5f4f0b3146103bb578063ed498fa8146103c5578063ed7a4e0b1461042a576100a7565b806322666da6146100ac578063445a5fa3146100e7578063502c9bd51461018d578063786b844b146102085780638da5cb5b1461025f57806398d5fdca146102b6575b600080fd5b3480156100b857600080fd5b506100e5600480360360208110156100cf57600080fd5b8101908080359060200190929190505050610481565b005b3480156100f357600080fd5b506101366004803603602081101561010a57600080fd5b81019080803573ffffffffffffffffffffffffffffffffffffffff16906020019092919050505061059d565b6040518080602001828103825283818151815260200191508051906020019060200280838360005b8381101561017957808201518184015260208101905061015e565b505050509050019250505060405180910390f35b34801561019957600080fd5b506101c6600480360360208110156101b057600080fd5b8101908080359060200190929190505050610636565b604051808273ffffffffffffffffffffffffffffffffffffffff1673ffffffffffffffffffffffffffffffffffffffff16815260200191505060405180910390f35b34801561021457600080fd5b5061021d610672565b604051808273ffffffffffffffffffffffffffffffffffffffff1673ffffffffffffffffffffffffffffffffffffffff16815260200191505060405180910390f35b34801561026b57600080fd5b506102746106e1565b604051808273ffffffffffffffffffffffffffffffffffffffff1673ffffffffffffffffffffffffffffffffffffffff16815260200191505060405180910390f35b3480156102c257600080fd5b506102cb610707565b6040518082815260200191505060405180910390f35b3480156102ed57600080fd5b506102f66108fb565b6040518082815260200191505060405180910390f35b34801561031857600080fd5b5061035b6004803603602081101561032f57600080fd5b81019080803573ffffffffffffffffffffffffffffffffffffffff169060200190929190505050610905565b604051808373ffffffffffffffffffffffffffffffffffffffff1673ffffffffffffffffffffffffffffffffffffffff1681526020018281526020019250505060405180910390f35b3480156103b057600080fd5b506103b9610949565b005b6103c3610a78565b005b3480156103d157600080fd5b50610414600480360360208110156103e857600080fd5b81019080803573ffffffffffffffffffffffffffffffffffffffff169060200190929190505050610b85565b6040518082815260200191505060405180910390f35b34801561043657600080fd5b5061043f610bd0565b604051808273ffffffffffffffffffffffffffffffffffffffff1673ffffffffffffffffffffffffffffffffffffffff16815260200191505060405180910390f35b620f4240811080156104d4575060008060003373ffffffffffffffffffffffffffffffffffffffff1673ffffffffffffffffffffffffffffffffffffffff16815260200190815260200160002060010154115b6104dd57600080fd5b6000803373ffffffffffffffffffffffffffffffffffffffff1673ffffffffffffffffffffffffffffffffffffffff1681526020019081526020016000206002018190806001815401808255809150509060018203906000526020600020016000909192909190915055506000803373ffffffffffffffffffffffffffffffffffffffff1673ffffffffffffffffffffffffffffffffffffffff168152602001908152602001600020600101600081548092919060019003919050555050565b60606000808373ffffffffffffffffffffffffffffffffffffffff1673ffffffffffffffffffffffffffffffffffffffff16815260200190815260200160002060020180548060200260200160405190810160405280929190818152602001828054801561062a57602002820191906000526020600020905b815481526020019060010190808311610616575b50505050509050919050565b6001818154811061064357fe5b906000526020600020016000915054906101000a900473ffffffffffffffffffffffffffffffffffffffff1681565b60003373ffffffffffffffffffffffffffffffffffffffff16600260009054906101000a900473ffffffffffffffffffffffffffffffffffffffff1673ffffffffffffffffffffffffffffffffffffffff16146106ce57600080fd5b60006106d8610bd0565b90508091505090565b600260009054906101000a900473ffffffffffffffffffffffffffffffffffffffff1681565b60003373ffffffffffffffffffffffffffffffffffffffff16600260009054906101000a900473ffffffffffffffffffffffffffffffffffffffff1673ffffffffffffffffffffffffffffffffffffffff161461076357600080fd5b600061076d610bd0565b9050600260009054906101000a900473ffffffffffffffffffffffffffffffffffffffff1673ffffffffffffffffffffffffffffffffffffffff168173ffffffffffffffffffffffffffffffffffffffff16141561083357600260009054906101000a900473ffffffffffffffffffffffffffffffffffffffff1673ffffffffffffffffffffffffffffffffffffffff166108fc479081150290604051600060405180830381858888f1935050505015801561082d573d6000803e3d6000fd5b506108f4565b60006002478161083f57fe5b0490508173ffffffffffffffffffffffffffffffffffffffff166108fc829081150290604051600060405180830381858888f19350505050158015610888573d6000803e3d6000fd5b50600260009054906101000a900473ffffffffffffffffffffffffffffffffffffffff1673ffffffffffffffffffffffffffffffffffffffff166108fc479081150290604051600060405180830381858888f193505050501580156108f1573d6000803e3d6000fd5b50505b4791505090565b6000600354905090565b60006020528060005260406000206000915090508060000160009054906101000a900473ffffffffffffffffffffffffffffffffffffffff16908060010154905082565b336000803373ffffffffffffffffffffffffffffffffffffffff1673ffffffffffffffffffffffffffffffffffffffff16815260200190815260200160002060000160006101000a81548173ffffffffffffffffffffffffffffffffffffffff021916908373ffffffffffffffffffffffffffffffffffffffff16021790555060008060003373ffffffffffffffffffffffffffffffffffffffff1673ffffffffffffffffffffffffffffffffffffffff1681526020019081526020016000206001018190555060013390806001815401808255809150509060018203906000526020600020016000909192909190916101000a81548173ffffffffffffffffffffffffffffffffffffffff021916908373ffffffffffffffffffffffffffffffffffffffff16021790555050565b60008090506000670de0b6b3a76400003481610a9057fe5b04905060008090505b600180549050811015610b27573373ffffffffffffffffffffffffffffffffffffffff1660018281548110610aca57fe5b9060005260206000200160009054906101000a900473ffffffffffffffffffffffffffffffffffffffff1673ffffffffffffffffffffffffffffffffffffffff161415610b1a5760019250610b27565b8080600101915050610a99565b506001821415610b8157806000803373ffffffffffffffffffffffffffffffffffffffff1673ffffffffffffffffffffffffffffffffffffffff168152602001908152602001600020600101600082825401925050819055505b5050565b60008060008373ffffffffffffffffffffffffffffffffffffffff1673ffffffffffffffffffffffffffffffffffffffff168152602001908152602001600020600101549050919050565b600080600090505b600180549050811015610d0757600080600060018481548110610bf757fe5b9060005260206000200160009054906101000a900473ffffffffffffffffffffffffffffffffffffffff1673ffffffffffffffffffffffffffffffffffffffff1673ffffffffffffffffffffffffffffffffffffffff168152602001908152602001600020905060008090505b8160020180549050811015610cf857600354826002018281548110610c8557fe5b906000526020600020015460405160200180828152602001915050604051602081830303815290604052805190602001201415610ceb578160000160009054906101000a900473ffffffffffffffffffffffffffffffffffffffff169350505050610d2e565b8080600101915050610c64565b50508080600101915050610bd8565b50600260009054906101000a900473ffffffffffffffffffffffffffffffffffffffff1690505b9056fea265627a7a72315820ed2c1df13e6ffd1fa5b818c0194d92fb888cb415c7ea2bca911f1827431120f864736f6c63430005100032",
  "source": "pragma solidity >=0.4.17;\n\n//the pragma line is the preprocessor directive, tells the version of solidity compiler\n\ncontract Lottery {\n//struct used to store the user information\nstruct User {\naddress payable userAddress;\nuint tokensBought;\nuint[] guess;\n\n}\n\n// a list of the users\nmapping (address => User) public users;\n\n  address[] public userAddresses;\n\naddress payable public owner;\nbytes32 winningGuessSha3;\n\n//contructor function\nconstructor(uint _winningGuess) public{\n// by default the owner of the contract is accounts[0] to set the owner change truffle.js\nowner = msg.sender;\nwinningGuessSha3 = keccak256(abi.encodePacked (_winningGuess));\n}\n\n  // returns the number of tokens purchased by an account\n  function userTokens(address _user) view public returns (uint) {\n    return users[_user].tokensBought;\n  }\n\n  // returns the guess made by user so far\n  function userGuesses(address _user) view public returns(uint[] memory) {\n    return users[_user].guess;\n  }\n\n  // returns the winning guess\n  function winningGuess() view public returns(bytes32) {\n    return winningGuessSha3;\n  }\n\n  // to add a new user to the contract to make guesses\n  function makeUser() public{\n    users[msg.sender].userAddress = msg.sender;\n    users[msg.sender].tokensBought = 0;\n    userAddresses.push(msg.sender);\n  }\n\n// function to add tokens to the user that calls the contract\n  // the money held in contract is sent using a payable modifier function\n  // money can be released using selfdestruct(address)\nfunction addTokens() payable public {\n    uint present = 0;\n    uint tokensToAdd = msg.value/(10**18);\n\n    for(uint i = 0; i < userAddresses.length; i++) {\n      if(userAddresses[i] == msg.sender) {\n        present = 1;\n        break;\n      }\n    }\n\n    // adding tokens if the user present in the userAddresses array\n    if (present == 1) {\n      users[msg.sender].tokensBought += tokensToAdd;\n    }\n}\n\n// to add user guesses\nfunction makeGuess(uint _userGuess) public {\n    require(_userGuess < 1000000 && users[msg.sender].tokensBought > 0);\n    users[msg.sender].guess.push(_userGuess);\n    users[msg.sender].tokensBought--;\n}\n\n// doesn't allow anyone to buy anymore tokens\nfunction closeGame() view public returns(address){\n    // can only be called my the owner of the contract\nrequire(owner == msg.sender);\n    address winner = winnerAddress();\n    return winner;\n}\n\n// returns the address of the winner once the game is closed\nfunction winnerAddress() view  public returns(address payable) {\n    for(uint i = 0; i < userAddresses.length; i++) {\n      User storage user= users[userAddresses[i]];\n\n      for(uint j = 0; j < user.guess.length; j++) {\n        if ( keccak256(abi.encodePacked( user.guess[j])) == winningGuessSha3) {\n          return user.userAddress;\n        }\n      }\n    }\n    // the owner wins if there are no winning guesses\n    return owner;\n}\n\n// sends 50% of the ETH in contract to the winner and rest of it to the owner\nfunction getPrice() public returns (uint){\n    require(owner == msg.sender);\n    address payable winner = winnerAddress();\n    if (winner == owner) {\n      owner.transfer(address(this).balance);\n    } else {\n      // returns the half the balance of the contract\n      uint toTransfer = address(this).balance / 2;\n\n      // transfer 50% to the winner\n      winner.transfer(toTransfer);\n      // transfer rest of the balance to the owner of the contract\n      owner.transfer(address(this).balance);\n    }\n    return address(this).balance;\n}\n}",
  "sourcePath": "/home/rafia/BlockChain/Lottery-DApp/contracts/Lottery.sol",
  "compiler": {
    "name": "solc",
    "version": "0.5.16+commit.9c3226ce.Emscripten.clang"
  },
  "schemaVersion": "3.2.0",
  "updatedAt": "2020-06-09T14:05:27.857Z",
  "networkType": "ethereum",
  "devdoc": {
    "methods": {}
  },
  "userdoc": {
    "methods": {}
  }
}